{
  "transactions": [
    {
      "hash": "0x9fba1394d2e0cb657c40aee2a7d28fe7ad22cd692c04eb1b7b2159b6b3a638bf",
      "transactionType": "CALL",
      "contractName": null,
      "contractAddress": "0x036cbd53842c5426634e7929541ec2318f3dcf7e",
      "function": "approve(address,uint256)",
      "arguments": [
        "0x2b50678df7FDb8Baba5867DC5de4F05432CbEf71",
        "22523000"
      ],
      "transaction": {
        "from": "0x872989f7fcd4048aca370161989d3904e37a3cb3",
        "to": "0x036cbd53842c5426634e7929541ec2318f3dcf7e",
        "gas": "0x13cc6",
        "value": "0x0",
        "input": "0x095ea7b30000000000000000000000002b50678df7fdb8baba5867dc5de4f05432cbef71000000000000000000000000000000000000000000000000000000000157ac78",
        "nonce": "0x53",
        "chainId": "0x14a34"
      },
      "additionalContracts": [],
      "isFixedGasLimit": false
    },
    {
      "hash": "0x4cb852f34c2db50db9f8bf4e10d881fa26f96c537522b1c3ff2878be3ca1aa2f",
      "transactionType": "CALL",
      "contractName": null,
      "contractAddress": "0x2b50678df7fdb8baba5867dc5de4f05432cbef71",
      "function": "addLiquidityUSDC(uint256)",
      "arguments": [
        "22523000"
      ],
      "transaction": {
        "from": "0x872989f7fcd4048aca370161989d3904e37a3cb3",
        "to": "0x2b50678df7fdb8baba5867dc5de4f05432cbef71",
        "gas": "0x16a7b",
        "value": "0x0",
        "input": "0x6b85615b000000000000000000000000000000000000000000000000000000000157ac78",
        "nonce": "0x54",
        "chainId": "0x14a34"
      },
      "additionalContracts": [],
      "isFixedGasLimit": false
    }
  ],
  "receipts": [
    {
      "status": "0x1",
      "cumulativeGasUsed": "0x160262",
      "logs": [
        {
          "address": "0x036cbd53842c5426634e7929541ec2318f3dcf7e",
          "topics": [
            "0x8c5be1e5ebec7d5bd14f71427d1e84f3dd0314c0f7b2291e5b200ac8c7c3b925",
            "0x000000000000000000000000872989f7fcd4048aca370161989d3904e37a3cb3",
            "0x0000000000000000000000002b50678df7fdb8baba5867dc5de4f05432cbef71"
          ],
          "data": "0x000000000000000000000000000000000000000000000000000000000157ac78",
          "blockHash": "0x0000000000000000000000000000000000000000000000000000000000000000",
          "blockNumber": "0x23a26bb",
          "blockTimestamp": "0x6987ac56",
          "transactionHash": "0x9fba1394d2e0cb657c40aee2a7d28fe7ad22cd692c04eb1b7b2159b6b3a638bf",
          "transactionIndex": "0x3",
          "logIndex": "0x4a",
          "removed": false
        }
      ],
      "logsBloom": "0x00000000040000000000000000000000000010000000000000000000000000000000000000000000000000000000000000000000000000000000000000200000000000000000000000000000000000000000000000000000000040000000000800040000000000040000000000000000000000000000000000000000000000000000000000000000000000000000000000000000000000000000000000000000020000000000000000000000000000000000000000000000001000000000000000000000000000040000000000000000000000000000000000000000000000000010000000000000000000000020000000000000000000000000000000000000",
      "type": "0x2",
      "transactionHash": "0x9fba1394d2e0cb657c40aee2a7d28fe7ad22cd692c04eb1b7b2159b6b3a638bf",
      "transactionIndex": "0x3",
      "blockHash": "0x0000000000000000000000000000000000000000000000000000000000000000",
      "blockNumber": "0x23a26bb",
      "gasUsed": "0xd899",
      "effectiveGasPrice": "0x124f80",
      "blobGasUsed": "0x79e0",
      "from": "0x872989f7fcd4048aca370161989d3904e37a3cb3",
      "to": "0x036cbd53842c5426634e7929541ec2318f3dcf7e",
      "contractAddress": null,
      "daFootprintGasScalar": "0x138",
      "l1BaseFeeScalar": "0x44d",
      "l1BlobBaseFee": "0x397f6d2",
      "l1BlobBaseFeeScalar": "0xa118b",
      "l1Fee": "0x4dff916d6",
      "l1GasPrice": "0x418fe9ec",
      "l1GasUsed": "0x640"
    },
    {
      "status": "0x1",
      "cumulativeGasUsed": "0x16fa3c",
      "logs": [
        {
          "address": "0x036cbd53842c5426634e7929541ec2318f3dcf7e",
          "topics": [
            "0xddf252ad1be2c89b69c2b068fc378daa952ba7f163c4a11628f55a4df523b3ef",
            "0x000000000000000000000000872989f7fcd4048aca370161989d3904e37a3cb3",
            "0x0000000000000000000000002b50678df7fdb8baba5867dc5de4f05432cbef71"
          ],
          "data": "0x000000000000000000000000000000000000000000000000000000000157ac78",
          "blockHash": "0x0000000000000000000000000000000000000000000000000000000000000000",
          "blockNumber": "0x23a26bb",
          "blockTimestamp": "0x6987ac56",
          "transactionHash": "0x4cb852f34c2db50db9f8bf4e10d881fa26f96c537522b1c3ff2878be3ca1aa2f",
          "transactionIndex": "0x4",
          "logIndex": "0x4b",
          "removed": false
        }
      ],
      "logsBloom": "0x00000000040000000000000000000000000010000000000000000000000000000000000000000000000000000000000000000000000000000000000000000000000000000000000000000008000000000000000000000000000040000000000800040000000000040000000000000000000000000000000000000010000000000000000000000000000000000000000000000000000000000000000000000000000000000000000000000000000000000000000000000000001000000000000000000002000000040000000000000000000000000000000000000000000000000000000000000000000000000020000000000000000000000000000000000000",
      "type": "0x2",
      "transactionHash": "0x4cb852f34c2db50db9f8bf4e10d881fa26f96c537522b1c3ff2878be3ca1aa2f",
      "transactionIndex": "0x4",
      "blockHash": "0x0000000000000000000000000000000000000000000000000000000000000000",
      "blockNumber": "0x23a26bb",
      "gasUsed": "0xf7da",
      "effectiveGasPrice": "0x124f80",
      "blobGasUsed": "0x79e0",
      "from": "0x872989f7fcd4048aca370161989d3904e37a3cb3",
      "to": "0x2b50678df7fdb8baba5867dc5de4f05432cbef71",
      "contractAddress": null,
      "daFootprintGasScalar": "0x138",
      "l1BaseFeeScalar": "0x44d",
      "l1BlobBaseFee": "0x397f6d2",
      "l1BlobBaseFeeScalar": "0xa118b",
      "l1Fee": "0x4dff916d6",
      "l1GasPrice": "0x418fe9ec",
      "l1GasUsed": "0x640"
    }
  ],
  "libraries": [],
  "pending": [],
  "returns": {},
  "timestamp": 1770499156,
  "chain": 84532,
  "commit": "efb9285"
}